{
  "address": "0x4ec1778178Eb42171B61D9F163d4ae9A326cdB3F",
  "abi": [
    {
      "inputs": [
        {
          "internalType": "address",
          "name": "vrfCoordinatorV2",
          "type": "address"
        },
        {
          "internalType": "uint256",
          "name": "entranceFee",
          "type": "uint256"
        },
        {
          "internalType": "bytes32",
          "name": "gasLane",
          "type": "bytes32"
        },
        {
          "internalType": "uint64",
          "name": "subscriptionID",
          "type": "uint64"
        },
        {
          "internalType": "uint32",
          "name": "callbackGasLimit",
          "type": "uint32"
        },
        {
          "internalType": "uint256",
          "name": "interval",
          "type": "uint256"
        }
      ],
      "stateMutability": "nonpayable",
      "type": "constructor"
    },
    {
      "inputs": [
        {
          "internalType": "address",
          "name": "have",
          "type": "address"
        },
        {
          "internalType": "address",
          "name": "want",
          "type": "address"
        }
      ],
      "name": "OnlyCoordinatorCanFulfill",
      "type": "error"
    },
    {
      "inputs": [],
      "name": "Raffle_NotEnoughETHEntered",
      "type": "error"
    },
    {
      "inputs": [],
      "name": "Raffle_NotOpen",
      "type": "error"
    },
    {
      "inputs": [],
      "name": "Raffle_TransferFailed",
      "type": "error"
    },
    {
      "inputs": [
        {
          "internalType": "uint256",
          "name": "currentBalance",
          "type": "uint256"
        },
        {
          "internalType": "uint256",
          "name": "numPlayers",
          "type": "uint256"
        },
        {
          "internalType": "uint256",
          "name": "raffeState",
          "type": "uint256"
        }
      ],
      "name": "Raffle_UpkeepNotNeeded",
      "type": "error"
    },
    {
      "anonymous": false,
      "inputs": [
        {
          "indexed": true,
          "internalType": "address",
          "name": "player",
          "type": "address"
        }
      ],
      "name": "RaffleEnter",
      "type": "event"
    },
    {
      "anonymous": false,
      "inputs": [
        {
          "indexed": true,
          "internalType": "uint256",
          "name": "requestId",
          "type": "uint256"
        }
      ],
      "name": "RequestedRafflewinner",
      "type": "event"
    },
    {
      "anonymous": false,
      "inputs": [
        {
          "indexed": true,
          "internalType": "address",
          "name": "winner",
          "type": "address"
        }
      ],
      "name": "WinnerPicked",
      "type": "event"
    },
    {
      "inputs": [
        {
          "internalType": "bytes",
          "name": "",
          "type": "bytes"
        }
      ],
      "name": "checkUpkeep",
      "outputs": [
        {
          "internalType": "bool",
          "name": "upkeepNeeded",
          "type": "bool"
        },
        {
          "internalType": "bytes",
          "name": "",
          "type": "bytes"
        }
      ],
      "stateMutability": "view",
      "type": "function"
    },
    {
      "inputs": [],
      "name": "enterRaffle",
      "outputs": [],
      "stateMutability": "payable",
      "type": "function"
    },
    {
      "inputs": [],
      "name": "getEntraceFee",
      "outputs": [
        {
          "internalType": "uint256",
          "name": "",
          "type": "uint256"
        }
      ],
      "stateMutability": "view",
      "type": "function"
    },
    {
      "inputs": [],
      "name": "getInterval",
      "outputs": [
        {
          "internalType": "uint256",
          "name": "",
          "type": "uint256"
        }
      ],
      "stateMutability": "view",
      "type": "function"
    },
    {
      "inputs": [],
      "name": "getLastTimeStamp",
      "outputs": [
        {
          "internalType": "uint256",
          "name": "",
          "type": "uint256"
        }
      ],
      "stateMutability": "view",
      "type": "function"
    },
    {
      "inputs": [],
      "name": "getNumWords",
      "outputs": [
        {
          "internalType": "uint256",
          "name": "",
          "type": "uint256"
        }
      ],
      "stateMutability": "pure",
      "type": "function"
    },
    {
      "inputs": [],
      "name": "getNumberOfPlayers",
      "outputs": [
        {
          "internalType": "uint256",
          "name": "",
          "type": "uint256"
        }
      ],
      "stateMutability": "view",
      "type": "function"
    },
    {
      "inputs": [
        {
          "internalType": "uint256",
          "name": "index",
          "type": "uint256"
        }
      ],
      "name": "getPlayer",
      "outputs": [
        {
          "internalType": "address",
          "name": "",
          "type": "address"
        }
      ],
      "stateMutability": "view",
      "type": "function"
    },
    {
      "inputs": [],
      "name": "getRaffleState",
      "outputs": [
        {
          "internalType": "enum Raffle.RaffleState",
          "name": "",
          "type": "uint8"
        }
      ],
      "stateMutability": "view",
      "type": "function"
    },
    {
      "inputs": [],
      "name": "getRecentWinner",
      "outputs": [
        {
          "internalType": "address",
          "name": "",
          "type": "address"
        }
      ],
      "stateMutability": "view",
      "type": "function"
    },
    {
      "inputs": [],
      "name": "getRequestConfirmation",
      "outputs": [
        {
          "internalType": "uint16",
          "name": "",
          "type": "uint16"
        }
      ],
      "stateMutability": "pure",
      "type": "function"
    },
    {
      "inputs": [
        {
          "internalType": "bytes",
          "name": "",
          "type": "bytes"
        }
      ],
      "name": "performUpkeep",
      "outputs": [],
      "stateMutability": "nonpayable",
      "type": "function"
    },
    {
      "inputs": [
        {
          "internalType": "uint256",
          "name": "requestId",
          "type": "uint256"
        },
        {
          "internalType": "uint256[]",
          "name": "randomWords",
          "type": "uint256[]"
        }
      ],
      "name": "rawFulfillRandomWords",
      "outputs": [],
      "stateMutability": "nonpayable",
      "type": "function"
    }
  ],
  "transactionHash": "0xcb512688e6fc4b9ed3b1406a03393276b29224d2de477931b38cca23e0750b89",
  "args": [
    "0x8103B0A8A00be2DDC778e6e7eaa21791Cd364625",
    "100000000000000000",
    "0x474e34a077df58807dbe9c96d3c009b23b3c6d0cce433e59bbf5b34f823bc56c",
    "7464",
    "500000",
    "30"
  ],
  "numDeployments": 1,
  "solcInputHash": "04896f82d4da1bb3ef2992e5eb07236e",
  "bytecode": "0x6101606040523480156200001257600080fd5b506040516200183f3803806200183f833981810160405281019062000038919062000294565b858073ffffffffffffffffffffffffffffffffffffffff1660808173ffffffffffffffffffffffffffffffffffffffff1681525050508460a081815250508573ffffffffffffffffffffffffffffffffffffffff1660c08173ffffffffffffffffffffffffffffffffffffffff16815250508360e081815250508267ffffffffffffffff166101008167ffffffffffffffff16815250508163ffffffff166101208163ffffffff16815250506000600160146101000a81548160ff021916908360018111156200010d576200010c62000330565b5b0217905550426002819055508061014081815250505050505050506200035f565b600080fd5b600073ffffffffffffffffffffffffffffffffffffffff82169050919050565b6000620001608262000133565b9050919050565b620001728162000153565b81146200017e57600080fd5b50565b600081519050620001928162000167565b92915050565b6000819050919050565b620001ad8162000198565b8114620001b957600080fd5b50565b600081519050620001cd81620001a2565b92915050565b6000819050919050565b620001e881620001d3565b8114620001f457600080fd5b50565b6000815190506200020881620001dd565b92915050565b600067ffffffffffffffff82169050919050565b6200022d816200020e565b81146200023957600080fd5b50565b6000815190506200024d8162000222565b92915050565b600063ffffffff82169050919050565b6200026e8162000253565b81146200027a57600080fd5b50565b6000815190506200028e8162000263565b92915050565b60008060008060008060c08789031215620002b457620002b36200012e565b5b6000620002c489828a0162000181565b9650506020620002d789828a01620001bc565b9550506040620002ea89828a01620001f7565b9450506060620002fd89828a016200023c565b93505060806200031089828a016200027d565b92505060a06200032389828a01620001bc565b9150509295509295509295565b7f4e487b7100000000000000000000000000000000000000000000000000000000600052602160045260246000fd5b60805160a05160c05160e051610100516101205161014051611470620003cf600039600081816107ce015261083c015260006106990152600061067601526000610655015260006106190152600081816103cf015261087701526000818161030f015261036301526114706000f3fe6080604052600436106100c25760003560e01c80636e04ff0d1161007f578063ca6a9ef811610059578063ca6a9ef814610238578063ce147cf314610263578063e55ae4e81461028e578063fd6673f5146102cb576100c2565b80636e04ff0d146101a457806391ad27b4146101e2578063c1c244e81461020d576100c2565b8063115cbaf5146100c75780631fe543e3146100f25780632cfcc5391461011b5780634585e33b14610125578063473f1ddc1461014e57806353a2c19a14610179575b600080fd5b3480156100d357600080fd5b506100dc6102f6565b6040516100e99190610c3d565b60405180910390f35b3480156100fe57600080fd5b5061011960048036038101906101149190610dfb565b61030d565b005b6101236103cd565b005b34801561013157600080fd5b5061014c60048036038101906101479190610eb2565b61053c565b005b34801561015a57600080fd5b50610163610752565b6040516101709190610f40565b60405180910390f35b34801561018557600080fd5b5061018e61077c565b60405161019b9190610f6a565b60405180910390f35b3480156101b057600080fd5b506101cb60048036038101906101c6919061103a565b61078b565b6040516101d992919061111d565b60405180910390f35b3480156101ee57600080fd5b506101f7610838565b6040516102049190610f6a565b60405180910390f35b34801561021957600080fd5b50610222610860565b60405161022f9190610f6a565b60405180910390f35b34801561024457600080fd5b5061024d61086a565b60405161025a919061116a565b60405180910390f35b34801561026f57600080fd5b50610278610873565b6040516102859190610f6a565b60405180910390f35b34801561029a57600080fd5b506102b560048036038101906102b09190611185565b61089b565b6040516102c29190610f40565b60405180910390f35b3480156102d757600080fd5b506102e06108e2565b6040516102ed9190610f6a565b60405180910390f35b6000600160149054906101000a900460ff16905090565b7f000000000000000000000000000000000000000000000000000000000000000073ffffffffffffffffffffffffffffffffffffffff163373ffffffffffffffffffffffffffffffffffffffff16146103bf57337f00000000000000000000000000000000000000000000000000000000000000006040517f1cf993f40000000000000000000000000000000000000000000000000000000081526004016103b69291906111b2565b60405180910390fd5b6103c982826108ee565b5050565b7f0000000000000000000000000000000000000000000000000000000000000000341015610427576040517f74938f2700000000000000000000000000000000000000000000000000000000815260040160405180910390fd5b6000600181111561043b5761043a610bc6565b5b600160149054906101000a900460ff16600181111561045d5761045c610bc6565b5b14610494576040517fd6e19a8d00000000000000000000000000000000000000000000000000000000815260040160405180910390fd5b6000339080600181540180825580915050600190039060005260206000200160009091909190916101000a81548173ffffffffffffffffffffffffffffffffffffffff021916908373ffffffffffffffffffffffffffffffffffffffff1602179055503373ffffffffffffffffffffffffffffffffffffffff167f0805e1d667bddb8a95f0f09880cf94f403fb596ce79928d9f29b74203ba284d460405160405180910390a2565b600061057c6040518060400160405280600181526020017f200000000000000000000000000000000000000000000000000000000000000081525061078b565b509050806105eb5747600080549050600160149054906101000a900460ff1660018111156105ad576105ac610bc6565b5b6040517fe059521b0000000000000000000000000000000000000000000000000000000081526004016105e2939291906111db565b60405180910390fd5b60018060146101000a81548160ff021916908360018111156106105761060f610bc6565b5b021790555060007f000000000000000000000000000000000000000000000000000000000000000073ffffffffffffffffffffffffffffffffffffffff16635d3b1d307f00000000000000000000000000000000000000000000000000000000000000007f000000000000000000000000000000000000000000000000000000000000000060037f000000000000000000000000000000000000000000000000000000000000000060016040518663ffffffff1660e01b81526004016106da95949392919061126d565b6020604051808303816000875af11580156106f9573d6000803e3d6000fd5b505050506040513d601f19601f8201168201806040525081019061071d91906112d5565b9050807f54eafe7ea63e240a1b0ba70cee8cc1b931cb2ba13c85b890166fe5b3e067262c60405160405180910390a250505050565b6000600160009054906101000a900473ffffffffffffffffffffffffffffffffffffffff16905090565b6000600163ffffffff16905090565b600060606000600160149054906101000a900460ff1660018111156107b3576107b2610bc6565b5b600060018111156107c7576107c6610bc6565b5b14905060007f0000000000000000000000000000000000000000000000000000000000000000600254426107fb9190611331565b1190506000806000805490501190506000804711905083801561081b5750825b80156108245750815b801561082d5750805b955050505050915091565b60007f0000000000000000000000000000000000000000000000000000000000000000905090565b6000600254905090565b60006003905090565b60007f0000000000000000000000000000000000000000000000000000000000000000905090565b60008082815481106108b0576108af611365565b5b9060005260206000200160009054906101000a900473ffffffffffffffffffffffffffffffffffffffff169050919050565b60008080549050905090565b600080805490508260008151811061090957610908611365565b5b602002602001015161091b91906113c3565b9050600080828154811061093257610931611365565b5b9060005260206000200160009054906101000a900473ffffffffffffffffffffffffffffffffffffffff16905080600160006101000a81548173ffffffffffffffffffffffffffffffffffffffff021916908373ffffffffffffffffffffffffffffffffffffffff1602179055506000600160146101000a81548160ff021916908360018111156109c6576109c5610bc6565b5b0217905550600067ffffffffffffffff8111156109e6576109e5610cb8565b5b604051908082528060200260200182016040528015610a145781602001602082028036833780820191505090505b5060009080519060200190610a2a929190610b1f565b504260028190555060008173ffffffffffffffffffffffffffffffffffffffff1647604051610a5890611425565b60006040518083038185875af1925050503d8060008114610a95576040519150601f19603f3d011682016040523d82523d6000602084013e610a9a565b606091505b5050905080610ad5576040517fba31c4f300000000000000000000000000000000000000000000000000000000815260040160405180910390fd5b8173ffffffffffffffffffffffffffffffffffffffff167f5b690ec4a06fe979403046eaeea5b3ce38524683c3001f662c8b5a829632f7df60405160405180910390a25050505050565b828054828255906000526020600020908101928215610b98579160200282015b82811115610b975782518260006101000a81548173ffffffffffffffffffffffffffffffffffffffff021916908373ffffffffffffffffffffffffffffffffffffffff16021790555091602001919060010190610b3f565b5b509050610ba59190610ba9565b5090565b5b80821115610bc2576000816000905550600101610baa565b5090565b7f4e487b7100000000000000000000000000000000000000000000000000000000600052602160045260246000fd5b60028110610c0657610c05610bc6565b5b50565b6000819050610c1782610bf5565b919050565b6000610c2782610c09565b9050919050565b610c3781610c1c565b82525050565b6000602082019050610c526000830184610c2e565b92915050565b6000604051905090565b600080fd5b600080fd5b6000819050919050565b610c7f81610c6c565b8114610c8a57600080fd5b50565b600081359050610c9c81610c76565b92915050565b600080fd5b6000601f19601f8301169050919050565b7f4e487b7100000000000000000000000000000000000000000000000000000000600052604160045260246000fd5b610cf082610ca7565b810181811067ffffffffffffffff82111715610d0f57610d0e610cb8565b5b80604052505050565b6000610d22610c58565b9050610d2e8282610ce7565b919050565b600067ffffffffffffffff821115610d4e57610d4d610cb8565b5b602082029050602081019050919050565b600080fd5b6000610d77610d7284610d33565b610d18565b90508083825260208201905060208402830185811115610d9a57610d99610d5f565b5b835b81811015610dc35780610daf8882610c8d565b845260208401935050602081019050610d9c565b5050509392505050565b600082601f830112610de257610de1610ca2565b5b8135610df2848260208601610d64565b91505092915050565b60008060408385031215610e1257610e11610c62565b5b6000610e2085828601610c8d565b925050602083013567ffffffffffffffff811115610e4157610e40610c67565b5b610e4d85828601610dcd565b9150509250929050565b600080fd5b60008083601f840112610e7257610e71610ca2565b5b8235905067ffffffffffffffff811115610e8f57610e8e610e57565b5b602083019150836001820283011115610eab57610eaa610d5f565b5b9250929050565b60008060208385031215610ec957610ec8610c62565b5b600083013567ffffffffffffffff811115610ee757610ee6610c67565b5b610ef385828601610e5c565b92509250509250929050565b600073ffffffffffffffffffffffffffffffffffffffff82169050919050565b6000610f2a82610eff565b9050919050565b610f3a81610f1f565b82525050565b6000602082019050610f556000830184610f31565b92915050565b610f6481610c6c565b82525050565b6000602082019050610f7f6000830184610f5b565b92915050565b600080fd5b600067ffffffffffffffff821115610fa557610fa4610cb8565b5b610fae82610ca7565b9050602081019050919050565b82818337600083830152505050565b6000610fdd610fd884610f8a565b610d18565b905082815260208101848484011115610ff957610ff8610f85565b5b611004848285610fbb565b509392505050565b600082601f83011261102157611020610ca2565b5b8135611031848260208601610fca565b91505092915050565b6000602082840312156110505761104f610c62565b5b600082013567ffffffffffffffff81111561106e5761106d610c67565b5b61107a8482850161100c565b91505092915050565b60008115159050919050565b61109881611083565b82525050565b600081519050919050565b600082825260208201905092915050565b60005b838110156110d85780820151818401526020810190506110bd565b60008484015250505050565b60006110ef8261109e565b6110f981856110a9565b93506111098185602086016110ba565b61111281610ca7565b840191505092915050565b6000604082019050611132600083018561108f565b818103602083015261114481846110e4565b90509392505050565b600061ffff82169050919050565b6111648161114d565b82525050565b600060208201905061117f600083018461115b565b92915050565b60006020828403121561119b5761119a610c62565b5b60006111a984828501610c8d565b91505092915050565b60006040820190506111c76000830185610f31565b6111d46020830184610f31565b9392505050565b60006060820190506111f06000830186610f5b565b6111fd6020830185610f5b565b61120a6040830184610f5b565b949350505050565b6000819050919050565b61122581611212565b82525050565b600067ffffffffffffffff82169050919050565b6112488161122b565b82525050565b600063ffffffff82169050919050565b6112678161124e565b82525050565b600060a082019050611282600083018861121c565b61128f602083018761123f565b61129c604083018661115b565b6112a9606083018561125e565b6112b6608083018461125e565b9695505050505050565b6000815190506112cf81610c76565b92915050565b6000602082840312156112eb576112ea610c62565b5b60006112f9848285016112c0565b91505092915050565b7f4e487b7100000000000000000000000000000000000000000000000000000000600052601160045260246000fd5b600061133c82610c6c565b915061134783610c6c565b925082820390508181111561135f5761135e611302565b5b92915050565b7f4e487b7100000000000000000000000000000000000000000000000000000000600052603260045260246000fd5b7f4e487b7100000000000000000000000000000000000000000000000000000000600052601260045260246000fd5b60006113ce82610c6c565b91506113d983610c6c565b9250826113e9576113e8611394565b5b828206905092915050565b600081905092915050565b50565b600061140f6000836113f4565b915061141a826113ff565b600082019050919050565b600061143082611402565b915081905091905056fea2646970667358221220a403dd1523aa11b4bf67e5d65f1bca29eac6d5d0c85073c02c8047985341287b64736f6c63430008130033",
  "devdoc": {
    "author": "C.C",
    "details": "this implements Chainlink VRF v2 and Chainlink automation",
    "kind": "dev",
    "methods": {},
    "title": "a simple Raffle contract",
    "version": 1
  },
  "userdoc": {
    "kind": "user",
    "methods": {
      "checkUpkeep(bytes)": {
        "notice": "Check if it's time for us to get a random number to update the recent winner and send them all the funds/ checkData: allow us to specify anything that we want, when we call this checkUpKeep function have this checkData begin type bytes, means that we can even specify this to call other functions it means it can perform complex calculations off-chain and then send the result to performUpkeep as performData this is the function that Chainlink keeper nodes call they look for `upkeepData` to be true. The following should be true in order to return true: 1. Our time interval should have passed 2. the lottery should have at least 1 player, and have some ETH 3. Our subscription is funded with LINK 4. the lottery should be in an \"open\" state when all the condition is sadisifieded, it will return true and send result to let performUpkeep to be executed."
      }
    },
    "notice": "This contract is for creating an untamperable decentralized smart contract",
    "version": 1
  },
  "storageLayout": {
    "storage": [
      {
        "astId": 243,
        "contract": "contracts/Raffle.sol:Raffle",
        "label": "s_players",
        "offset": 0,
        "slot": "0",
        "type": "t_array(t_address_payable)dyn_storage"
      },
      {
        "astId": 260,
        "contract": "contracts/Raffle.sol:Raffle",
        "label": "s_recentWinner",
        "offset": 0,
        "slot": "1",
        "type": "t_address"
      },
      {
        "astId": 263,
        "contract": "contracts/Raffle.sol:Raffle",
        "label": "s_raffle_State",
        "offset": 20,
        "slot": "1",
        "type": "t_enum(RaffleState)238"
      },
      {
        "astId": 265,
        "contract": "contracts/Raffle.sol:Raffle",
        "label": "s_lastTimeStamp",
        "offset": 0,
        "slot": "2",
        "type": "t_uint256"
      }
    ],
    "types": {
      "t_address": {
        "encoding": "inplace",
        "label": "address",
        "numberOfBytes": "20"
      },
      "t_address_payable": {
        "encoding": "inplace",
        "label": "address payable",
        "numberOfBytes": "20"
      },
      "t_array(t_address_payable)dyn_storage": {
        "base": "t_address_payable",
        "encoding": "dynamic_array",
        "label": "address payable[]",
        "numberOfBytes": "32"
      },
      "t_enum(RaffleState)238": {
        "encoding": "inplace",
        "label": "enum Raffle.RaffleState",
        "numberOfBytes": "1"
      },
      "t_uint256": {
        "encoding": "inplace",
        "label": "uint256",
        "numberOfBytes": "32"
      }
    }
  }
}